:100000000C9463000C948B000C948B000C948B006C
:100010000C948B000C948B000C948B000C943A077E
:100020000C948B000C948B000C948B000C948B0024
:100030000C948B000C948B000C948B000C948B0014
:100040000C94F0060C948B000C94BC070C9496074F
:100050000C948B000C948B000C948B000C948B00F4
:100060000C948B000C948B000200000000230026EF
:1000700000290000000000240027002A00000000E2
:1000800000250028002B00040404040404040402D6
:100090000202020202030303030303010204081025
:1000A00020408001020408102001020408102000F2
:1000B0000000080002010000030407000000000027
:1000C00000000000EE0711241FBECFEFD8E0DEBF16
:1000D000CDBF23E0A6E8B2E001C01D92AF35B20764
:1000E000E1F712E0A0E0B1E0EEE5FFE102C005902B
:1000F0000D92A638B107D9F710E0C3E6D0E004C0EE
:100100002197FE010E94B50DC236D107C9F70E94A2
:100110002D080C94AD0F0C94000090E0FC01E1550B
:10012000FF4F2491FC01E556FF4F3491FC01E95744
:10013000FF4FE491EE23C9F0222339F0233001F17F
:10014000A8F4213019F1223029F1F0E0EE0FFF1F61
:10015000E358FF4FA591B4918FB7F894EC916111DA
:1001600026C030953E233C938FBF08952730A9F0D9
:100170002830C9F0243049F7809180008F7D03C07A
:10018000809180008F7780938000DFCF84B58F7758
:1001900084BDDBCF84B58F7DFBCF8091B0008F779E
:1001A0008093B000D2CF8091B0008F7DF9CF3E2BED
:1001B000DACFCF93DF9390E0FC01E556FF4F249117
:1001C00089579F4FFC0184918823D1F090E0880FDC
:1001D000991FFC01ED58FF4FA591B491FC01E35824
:1001E000FF4FC591D49161110EC09FB7F8948C91C7
:1001F000E22FE0958E238C932881E223E8839FBF32
:10020000DF91CF9108958FB7F894EC91E22BEC93A6
:100210008FBFF6CF3FB7F8948091A6029091A702C6
:10022000A091A802B091A90226B5A89B05C02F3FB6
:1002300019F00196A11DB11D3FBFBA2FA92F982F0C
:100240008827BC01CD01620F711D811D911D42E007
:10025000660F771F881F991F4A95D1F708958F92CF
:100260009F92AF92BF92CF92DF92EF92FF926B017B
:100270007C010E940A014B015C01C114D104E1041C
:10028000F104B9F00E940A01681979098A099B09E9
:10029000683E73408105910580F321E0C21AD108C0
:1002A000E108F10888EE880E83E0981EA11CB11CBD
:1002B000E4CFFF90EF90DF90CF90BF90AF909F90F2
:1002C0008F9008959091000189130BC0E8E6F0E04B
:1002D000E4919FEF90930001E13049F028F0E23083
:1002E00061F060E00C948D0010926E00FACF909156
:1002F0006F009D7F90936F00F4CF909170009D7F71
:100300009093700091E09093B0009091B100987F2D
:1003100094609093B1001092B300E3CFAF92BF927C
:10032000CF92DF92EF92FF920F931F93CF93DF93C1
:100330006C017B018B01040F151FEB015E01AE18F0
:10034000BF08C017D10759F06991D601ED91FC9112
:100350000190F081E02DC6010995892B79F7C5013F
:10036000DF91CF911F910F91FF90EF90DF90CF9091
:10037000BF90AF900895FC01538D448D252F30E040
:10038000842F90E0821B930B541710F0CF960895A2
:1003900001970895FC01918D828D981761F0A28DCF
:1003A000AE0FBF2FB11D5D968C91928D9F5F9F7395
:1003B000928F90E008958FEF9FEF0895FC01918D4B
:1003C000828D981731F0828DE80FF11D858D90E0B8
:1003D00008958FEF9FEF0895FC01918D228D892F55
:1003E00090E0805C9F4F821B91098F73992708953D
:1003F0008AEA92E00E94EC0121E0892B09F420E0D6
:10040000822F089580E090E0892B29F00E94F80166
:1004100081110C9400000895FC01A48DA80FB92F40
:10042000B11DA35ABF4F2C91848D90E001968F731C
:100430009927848FA689B7892C93A089B1898C913B
:10044000837080648C93938D848D981306C002888A
:10045000F389E02D80818F7D80830895EF92FF9254
:100460000F931F93CF93DF93EC0181E0888F9B8DD7
:100470008C8D98131AC0E889F989808185FF15C091
:100480009FB7F894EE89FF896083E889F9898081B4
:100490008370806480839FBF81E090E0DF91CF9183
:1004A0001F910F91FF90EF900895F62E0B8D10E0A5
:1004B0000F5F1F4F0F731127E02E8C8D8E110CC014
:1004C0000FB607FCFACFE889F989808185FFF5CF5F
:1004D000CE010E940C02F1CFEB8DEC0FFD2FF11D30
:1004E000E35AFF4FF0829FB7F8940B8FEA89FB899C
:1004F00080818062CFCFCF93DF93EC01888D8823FA
:10050000B9F0AA89BB89E889F9898C9185FD03C076
:10051000808186FD0DC00FB607FCF7CF8C9185FF5B
:10052000F2CF808185FFEDCFCE010E940C02E9CF92
:10053000DF91CF9108952F923F924F925F926F92E9
:100540007F928F929F92AF92BF92CF92DF92EF9263
:10055000FF920F931F93CF93DF93CDB7DEB76397CF
:100560000FB6F894DEBF0FBECDBF58874F830F87FD
:10057000188B298B3A8B9B01220F331F3E872D87C7
:100580001C011A8219824D855E8589819A818417A2
:1005900095070CF096C2D10112966D917C911616BA
:1005A00017060CF09EC08F8198850E944C0D9B0110
:1005B000770F440B550B29873A874B875C87CA0115
:1005C000B9010E94BF0A26E636E646E65FE30E94CE
:1005D0001E0B0E94130D2B013C01D1010D911C91AA
:1005E000809100018B3009F092C0E8E6F0E0F491D0
:1005F000FB8BF7FD77C161E08BE00E94D900FB899E
:10060000FF2321F02B89223009F09AC14801B12C37
:10061000A12C60E072E18AE790E0A50198010E94B8
:10062000820D2B833C834D835E8369017A0131E027
:10063000C31AD108E108F1084FEFC416D104E10450
:10064000F10409F00CF426C160E472E48FE090E05C
:10065000A50198010E94820D69017A0181E0C81A02
:10066000D108E108F1089B89923009F0C7C082E007
:10067000AFEFCA16D104E104F10409F00CF41AC278
:1006800060E970ED83E090E0A50198010E94820D81
:1006900069017A01B1E0CB1AD108E108F10883E0E1
:1006A000EFEFCE16D104E104F10409F00CF402C21C
:1006B00068E478EE81E090E0A50198010E94820D47
:1006C00069017A01E1E0CE1AD108E108F108FFEFF3
:1006D000CF16D104E104F10411F00CF0B3C084E0B2
:1006E000E9C17195619571098F8198850E944C0DC2
:1006F000072E000C880B990B0E94BF0A20E030E007
:1007000040EC5FE30E941E0B0E940C0D50CF8F3F08
:1007100009F0E8C08BE080930001E8E6F0E0F49196
:10072000FB8BFF3F09F4DEC0F13031F158F0F230BD
:1007300009F441C05B8957FDD5C061E08BE00E94A0
:10074000D90060CF14BC15BC84B5826084BD85B56A
:10075000816085BDE2E9F0E08491E82FF0E0EE0FE2
:10076000FF1FE358FF4F85919491E6EAF0E08491F2
:10077000809387021B8A3FCF1092800010928100E5
:1007800080918100886080938100809181008160E8
:1007900080938100E2E9F0E08491E82FF0E0EE0F31
:1007A000FF1FE358FF4F85919491E6EAF0E08491B2
:1007B0008093860220CF1092B0001092B1008091F9
:1007C000B00082608093B0008091B100816080931E
:1007D000B100E2E9F0E08491E82FF0E0EE0FFF1FB6
:1007E000E358FF4F859194919093910280939002EA
:1007F000E6EAF0E0849180939202FDCEFFEFCF16FF
:10080000D104E104F10409F00CF498C068E478EE36
:1008100081E090E0A50198010E94820D69017A01B2
:1008200081E0C81AD108E108F1089B89992309F4ED
:100830000DC1AFEFCA16D104E104F10411F00CF0C0
:100840000EC14DCF64E274EF80E090E0A501940109
:100850000E94820D69017A01A1E0CA1AD108E1085B
:10086000F10885E0BFEFCB16D104E104F10409F0F3
:1008700008F420C162E17AE780E090E0A5019401EC
:100880000E94820D69017A0181E0C81AD108E1084D
:10089000F108F7C081E02B8921110CC195B5987F33
:1008A000892B85BD2FEF3FEFA9014114510461044D
:1008B000710409F06FC0EB89E13009F48AC0E230BD
:1008C00009F499C0E1110EC0C7BC20938C0230938B
:1008D0008D0240938E0250938F0280916E00826051
:1008E00080936E0069857A858B859C850E942F0197
:1008F0008BE00E9462012FB7F8948091A202909140
:10090000A302A091A402B091A5022FBFF4E02F0E84
:10091000311C2F85388949895A89821B930BA40B76
:10092000B50B883B9B40A105B10508F0CAC04981C1
:100930005A814E5F5F4F5A83498325CE82E0ABCF09
:10094000B12CA12C60E072E18AE790E0A50198014A
:100950000E94820D69017A0181E0C81AD108E1087C
:10096000F108C114D10491E0E906F1040CF591E01D
:10097000BB89B13009F096CF80918100887F892BA7
:10098000809381002FEF3FEFA901411451046104CE
:100990007104F9F0D801AA0FBB1FA30192010E94B4
:1009A000DC0B28EE33E040E050E00E94600D83CF86
:1009B00068E478EE81E090E0A50198010E94820D44
:1009C00069017A01A1E0CA1AD108E108F10893E0AF
:1009D000CFCFD0928900C0928800209388023093B4
:1009E000890240938A0250938B0280916F0082604B
:1009F00080936F0077CFC092B3002093930230931F
:100A00009402409395025093960280917000826008
:100A10008093700067CF84E0BFEFCB16D104E10470
:100A2000F10409F008F43ACFCB80DC80ED80FE8041
:100A30008AE0F594E794D794C7948A95D1F7A1E01A
:100A4000CA1AD108E108F10885E028CF83E09FEFBA
:100A5000C916D104E104F10409F00CF41FCF62E1DE
:100A60007AE780E090E0A50194010E94820D69017F
:100A70007A01E1E0CE1AD108E108F108FB89FF23F1
:100A800051F286E09FEFC916D104E104F10491F020
:100A900088F0CB80DC80ED80FE809AE0F594E794CE
:100AA000D794C7949A95D1F781E0C81AD108E10884
:100AB000F10887E09091B100987F892B8093B10075
:100AC000F1CE63960FB6F894DEBF0FBECDBFDF91B7
:100AD000CF911F910F91FF90EF90DF90CF90BF903B
:100AE000AF909F908F907F906F905F904F903F90CE
:100AF0002F900895FC0101900020E9F73197AF0194
:100B0000481B590BBC018AEA92E00C948E018F922B
:100B10009F92AF92BF920F931F93CF93DF93CDB766
:100B2000DEB7A1970FB6F894DEBF0FBECDBF19A2F6
:100B3000423008F44AE08E010F5D1F4F842E912C45
:100B4000B12CA12CA50194010E94600DE62FB901E2
:100B5000CA01EA30F4F4E05DD801EE938D01232B55
:100B6000242B252B79F790E080E0109719F0CD0128
:100B70000E947A05A1960FB6F894DEBF0FBECDBFD6
:100B8000DF91CF911F910F91BF90AF909F908F9069
:100B90000895E95CE1CF4F925F926F927F928F92BE
:100BA0009F92AF92BF92CF92DF92EF92FF920F93FC
:100BB0001F93CF936B017C01742EAC019B010E94AB
:100BC000470D882399F08DE292E0CF911F910F910C
:100BD000FF90EF90DF90CF90BF90AF909F908F905D
:100BE0007F906F905F904F900C947A05460157016B
:100BF000E894B7F82FEF3FEF4FE75FE7C501B40187
:100C00000E94470D81110DC02FEF3FEF4FE75FE7C7
:100C1000C501B4010E94B80A18161CF481E392E0E1
:100C2000D4CF2FEF3FEF4FE75FE4C701B6010E943B
:100C3000420D18161CF485E392E0C7CF2FEF3FEF6B
:100C40004FE75FECC701B6010E94B80A87FDF3CFFA
:100C500020E030E0A901C701B6010E94B80A10E007
:100C600000E087FF0AC06DE28AEA92E00E942E024D
:100C70008C01F7FAF094F7F8F094C0E060E070E0CF
:100C800080E09FE37C1641F020E030E040E251E458
:100C90000E949A0CCF5FF6CFA70196010E942E0CFE
:100CA0002B013C010E94130D4B015C014AE00E94A4
:100CB00087057C01E00EF11ECC23C1F1C501B40112
:100CC0000E94BD0A9B01AC01C301B2010E942D0C20
:100CD0004B015C016EE28AEA92E00E942E02E80E6D
:100CE000F91EC15018F120E030E040E251E4C501A6
:100CF000B4010E941E0B2B013C010E94130D4B01FD
:100D0000B12CA12C4AE0C501B4010E948705E80E70
:100D1000F91EC501B4010E94BD0A9B01AC01C301CB
:100D2000B2010E942D0C4B015C01DBCFC701CF91BA
:100D30001F910F91FF90EF90DF90CF90BF90AF90F9
:100D40009F908F907F906F905F904F900895EF925B
:100D5000FF920F931F93CF93DF93EC017B011982D6
:100D600018821B821A821D821C82FB0101900020C6
:100D7000E9F731978F01061B170BB8016F5F7F4FA3
:100D800090E080E00E94E00E0097B9F0998388839C
:100D90001B830A832C813D81232B11F4FC011082DB
:100DA0001D830C83B70188819981DF91CF911F91B9
:100DB0000F91FF90EF900C94A60F88819981009776
:100DC00011F00E94570E198218821D821C821B820C
:100DD0001A82DF91CF911F910F91FF90EF900895AC
:100DE0001F920F920FB60F9211242F933F938F9360
:100DF0009F93AF93BF938091A2029091A302A09181
:100E0000A402B091A5023091A10223E0230F2D3757
:100E100058F50196A11DB11D2093A1028093A20255
:100E20009093A302A093A402B093A5028091A6027E
:100E30009091A702A091A802B091A9020196A11DCC
:100E4000B11D8093A6029093A702A093A802B0932D
:100E5000A902BF91AF919F918F913F912F910F90D8
:100E60000FBE0F901F90189526E8230F0296A11D24
:100E7000B11DD2CF1F920F920FB60F9211242F9354
:100E80003F934F935F936F937F938F939F93AF9312
:100E9000BF93EF93FF938091930290919402A0915E
:100EA0009502B0919602892B8A2B8B2BD1F19091D0
:100EB0009202E0919002F0919102808189278083D3
:100EC0008091930290919402A0919502B091960224
:100ED000181619061A061B069CF48091930290912D
:100EE0009402A0919502B09196020197A109B109CF
:100EF0008093930290939402A0939502B0939602EC
:100F0000FF91EF91BF91AF919F918F917F916F91E1
:100F10005F914F913F912F910F900FBE0F901F90B7
:100F20001895809100010E946201EACF1F920F92F2
:100F30000FB60F9211242F933F934F935F936F93AC
:100F40007F938F939F93AF93BF93EF93FF938AEA1F
:100F500092E00E940C02FF91EF91BF91AF919F919F
:100F60008F917F916F915F914F913F912F910F9052
:100F70000FBE0F901F9018951F920F920FB60F92F1
:100F800011242F938F939F93EF93FF93E091BA02D5
:100F9000F091BB028081E091C002F091C10282FD1C
:100FA0001BC090818091C3028F5F8F732091C40218
:100FB000821741F0E091C302F0E0E655FD4F958FB6
:100FC0008093C302FF91EF919F918F912F910F908A
:100FD0000FBE0F901F9018958081F4CFEAEAF2E0DF
:100FE0001382128288EE93E0A0E0B0E084839583C0
:100FF000A683B7838FE192E09183808385EC90E0B4
:101000009587848784EC90E09787868780EC90E0D2
:10101000918B808B81EC90E0938B828B82EC90E0C3
:10102000958B848B86EC90E0978B868B118E128E3D
:10103000138E148E10925A0382EB96E090934C0319
:1010400080934B0325E335E030934A032093490313
:1010500090934803809347030895CF93DF9300D084
:1010600000D000D0CDB7DEB7789484B5826084BD5F
:1010700084B5816084BD85B5826085BD85B581609C
:1010800085BD80916E00816080936E00109281001A
:1010900080918100826080938100809181008160D5
:1010A0008093810080918000816080938000809196
:1010B000B10084608093B1008091B0008160809322
:1010C000B00080917A00846080937A0080917A00E9
:1010D000826080937A0080917A00816080937A00A8
:1010E00080917A00806880937A001092C100E0912C
:1010F000BA02F091BB0282E08083E091B602F091E7
:10110000B7021082E091B802F091B9028FEC8083AF
:101110001092C202E091BE02F091BF0286E080838D
:10112000E091BC02F091BD02808180618083E091FA
:10113000BC02F091BD02808188608083E091BC0296
:10114000F091BD02808180688083E091BC02F091C3
:10115000BD0280818F7D808361E086E00E94D9009E
:1011600061E085E00E94D90061E083E00E94D9003F
:1011700060E08EE00E94D90013EA212E10E0312EAB
:101180000FE8E02E00E0F02E80E9882E9924939459
:10119000A12CB12CB0E0CB2EB0E0DB2E80915A0315
:1011A000882309F0F894F1017490F7018491E82FF5
:1011B000F0E0EE0FFF1FE759FF4F0591149161E03A
:1011C00088E00E94D90060E088E00E948D0062E122
:1011D00070E080E090E00E942F0161E088E00E94D2
:1011E0008D0060E088E00E94D90080E293E0D801A1
:1011F0002C91272109F420C10197C9F780915A0346
:10120000811173C1609155036F77609355031091FD
:1012100057031F771093570370E090E080E00E941F
:10122000BD0A2B013C0140924D0350924E03609247
:101230004F0370925003612F70E090E080E00E94B5
:10124000BD0A6093510370935203809353039093AC
:10125000540360939D0270939E0280939F0290932B
:10126000A0024092990250929A0260929B02709260
:101270009C02E0E4E0937C0080917A00806480939B
:101280007A0080917A0086FDFCCF609178007091A1
:101290007900072E000C880B990B0E94BF0A2AE0E8
:1012A00038E240EA5BE30E941E0B2B013C0126E67C
:1012B00036E646E250E40E94420D69E372E087FFA1
:1012C0001AC020E030E040E050E4C301B2010E94C7
:1012D000420D6EE372E087FF0EC020E030E040E890
:1012E0005FE3C301B2010E94420D67E472E087FF31
:1012F00002C06BE472E0CE0101960E94A70684E56D
:1013000092E00E947A0560919D0270919E02809108
:101310009F029091A00242E00E94CB0582E692E0FB
:101320000E947A0585E692E00E947A056091990212
:1013300070919A0280919B0290919C0242E00E94DF
:10134000CB0582E692E00E947A0580E792E00E9457
:101350007A0542E0C301B2010E94CB058AE792E020
:101360000E947A0582E692E00E947A058DE792E07B
:101370000E947A054D815E8169817A818AEA92E0D4
:101380000E948E0182E692E00E947A0540909D02C2
:1013900050909E0260909F027090A00220E030E08A
:1013A00040EA51E4C301B2010E94420D87FF9FC091
:1013B00001E010E020E030E040E251E4C301B2017E
:1013C0000E94420D18160CF000E0C801209197020F
:1013D000309198022817390709F4A2C09093980217
:1013E000809397024FB7F8940091A2021091A30244
:1013F0002091A4023091A5024FBF8130910509F4DC
:10140000A7C08230910509F475C0892B09F088C006
:1014100040914703509148036FE170E081E091E013
:101420000E949B0260E086E00E948D0060E085E003
:101430000E948D0061E071C080E991E0F801208197
:10144000272119F40197D1F7D9CE80E991E0D8018D
:101450002C912721A1F10197D1F7D0CE6F2F6620D3
:1014600009F4CCCED801FC91F72131F5662321F1A6
:10147000B8E26B1232C08417950708F4AC01C501BD
:10148000B401641B750B8109910922E0959587953C
:10149000779567952A95D1F79B01469451F4A52D30
:1014A000B0E0A35BBC4F1896EC935394E0E080E867
:1014B000482E6A9480E991E0019781F69FCE512CE5
:1014C000E0E030E8432E30E020E080E991E040E9C0
:1014D00051E060E078E2672EC5CFBA01621B730B62
:1014E00068177907D0F2E429D8CF78948BCE82E0C0
:1014F00090E06CCF40914B0350914C0369E170E058
:1015000081EB91E00E949B0261E086E00E948D00E9
:1015100060E085E00E948D0060E083E00E948D0025
:1015200064EC79E080E090E00E942F0189819A814B
:10153000009711F00E94570EC114D10409F42ECE69
:101540000E94F801882309F429CE0E94000022CECF
:101550004091490350914A036DE070E08DE791E0BE
:101560000E949B0260E086E00E948D0061E0D1CF86
:101570000E94FA0A08F481E00895E89409C097FBF4
:101580003EF490958095709561957F4F8F4F9F4F5A
:101590009923A9F0F92F96E9BB279395F69587959E
:1015A00077956795B795F111F8CFFAF4BB0F11F461
:1015B00060FF1BC06F5F7F4F8F4F9F4F16C0882308
:1015C00011F096E911C0772321F09EE8872F762F3E
:1015D00005C0662371F096E8862F70E060E02AF07F
:1015E0009A95660F771F881FDAF7880F969587956B
:1015F00097F90895990F0008550FAA0BE0E8FEEF40
:1016000016161706E807F907C0F012161306E407C6
:10161000F50798F0621B730B840B950B39F40A26BF
:1016200061F0232B242B252B21F408950A2609F49D
:10163000A140A6958FEF811D811D08950E94310B59
:101640000C94A20B0E94940B38F00E949B0B20F08C
:10165000952311F00C948B0B0C94910B11240C948A
:10166000D60B0E94B30B70F3959FC1F3950F50E01A
:10167000551F629FF001729FBB27F00DB11D639F44
:10168000AA27F00DB11DAA1F649F6627B00DA11DEA
:10169000661F829F2227B00DA11D621F739FB00D90
:1016A000A11D621F839FA00D611D221F749F332700
:1016B000A00D611D231F849F600D211D822F762F99
:1016C0006A2F11249F5750409AF0F1F088234AF076
:1016D000EE0FFF1FBB1F661F771F881F91505040E2
:1016E000A9F79E3F510580F00C948B0B0C94D60B00
:1016F0005F3FE4F3983ED4F3869577956795B79569
:10170000F795E7959F5FC1F7FE2B880F911D969582
:10171000879597F9089597F99F6780E870E060E0F2
:1017200008959FEF80EC089500240A94161617067A
:1017300018060906089500240A94121613061406C2
:1017400005060895092E0394000C11F4882352F025
:10175000BB0F40F4BF2B11F460FF04C06F5F7F4FDD
:101760008F4F9F4F089557FD9058440F551F59F0C4
:101770005F3F71F04795880F97FB991F61F09F3F7E
:1017800079F087950895121613061406551FF2CFA7
:101790004695F1DF08C0161617061806991FF1CFF7
:1017A00086957105610508940895E894BB2766271E
:1017B0007727CB0197F908950E941E0CA59F900DE5
:1017C000B49F900DA49F800D911D112408952F9218
:1017D0003F924F925F926F927F928F929F92AF92C1
:1017E000BF92CF92DF92EF92FF920F931F93CF930E
:1017F000DF93CDB7DEB7CA1BDB0B0FB6F894DEBFA5
:101800000FBECDBF09942A88398848885F846E84CA
:101810007D848C849B84AA84B984C884DF80EE8014
:10182000FD800C811B81AA81B981CE0FD11D0FB61D
:10183000F894DEBF0FBECDBFED010895A29FB001A9
:10184000B39FC001A39F700D811D1124911DB29FF4
:10185000700D811D1124911D08955058BB27AA2792
:101860000E94450C0C94A20B0E94940B38F00E942D
:101870009B0B20F039F49F3F19F426F40C94910B44
:101880000EF4E095E7FB0C948B0BE92F0E94B30B51
:1018900058F3BA17620773078407950720F079F4A5
:1018A000A6F50C94D50B0EF4E0950B2EBA2FA02DB7
:1018B0000B01B90190010C01CA01A0011124FF27FD
:1018C000591B99F0593F50F4503E68F11A16F040F8
:1018D000A22F232F342F4427585FF3CF46953795F7
:1018E0002795A795F0405395C9F77EF41F16BA0BBC
:1018F000620B730B840BBAF09150A1F0FF0FBB1F6A
:10190000661F771F881FC2F70EC0BA0F621F731FB2
:10191000841F48F4879577956795B795F7959E3F0F
:1019200008F0B0CF9395880F08F09927EE0F9795A0
:10193000879508950E94AE0C0C94A20B0E949B0BFD
:1019400058F00E94940B40F029F45F3F29F00C946A
:101950008B0B51110C94D60B0C94910B0E94B30B72
:1019600068F39923B1F3552391F3951B550BBB27CE
:10197000AA2762177307840738F09F5F5F4F220F13
:10198000331F441FAA1FA9F335D00E2E3AF0E0E80A
:1019900032D091505040E695001CCAF72BD0FE2F54
:1019A00029D0660F771F881FBB1F261737074807E8
:1019B000AB07B0E809F0BB0B802DBF01FF279358A0
:1019C0005F4F3AF09E3F510578F00C948B0B0C94CE
:1019D000D60B5F3FE4F3983ED4F3869577956795F1
:1019E000B795F7959F5FC9F7880F911D96958795D5
:1019F00097F90895E1E0660F771F881FBB1F6217F4
:101A000073078407BA0720F0621B730B840BBA0BB1
:101A1000EE1F88F7E09508950E94130D6894B111A8
:101A20000C94D60B08950E94BB0B88F09F5798F03A
:101A3000B92F9927B751B0F0E1F0660F771F881FD3
:101A4000991F1AF0BA95C9F714C0B13091F00E94ED
:101A5000D50BB1E008950C94D50B672F782F88270C
:101A6000B85F39F0B93FCCF3869577956795B39514
:101A7000D9F73EF490958095709561957F4F8F4F83
:101A80009F4F08950E94FA0A08F48FEF08950E946C
:101A9000FA0A880B990B089597FB072E16F4009409
:101AA00007D077FD09D00E94A10D07FC05D03EF4B8
:101AB000909581959F4F0895709561957F4F0895FA
:101AC000A1E21A2EAA1BBB1BFD010DC0AA1FBB1F42
:101AD000EE1FFF1FA217B307E407F50720F0A21BB4
:101AE000B30BE40BF50B661F771F881F991F1A9421
:101AF00069F760957095809590959B01AC01BD014B
:101B0000CF010895052E97FB1EF400940E94990DB5
:101B100057FD07D00E94600D07FC03D04EF40C94D3
:101B2000990D50954095309521953F4F4F4F5F4F00
:101B3000089590958095709561957F4F8F4F9F4F39
:101B40000895AA1BBB1B51E107C0AA1FBB1FA61704
:101B5000B70710F0A61BB70B881F991F5A95A9F756
:101B600080959095BC01CD010895EE0FFF1F059063
:101B7000F491E02D09940F931F93CF93DF9382305C
:101B8000910510F482E090E0E0915D03F0915E0336
:101B900030E020E0B0E0A0E0309799F42115310565
:101BA00009F44AC0281B390B24303105D8F58A8145
:101BB0009B816115710589F1FB0193838283FE018D
:101BC00011C0408151810281138148175907E0F00B
:101BD0004817590799F4109761F012960C931297D1
:101BE00013961C933296CF01DF91CF911F910F91E5
:101BF000089500935D0310935E03F4CF2115310522
:101C000051F04217530738F0A901DB019A01BD01D9
:101C1000DF01F801C1CFEF01F9CF90935E0380930C
:101C20005D03CDCFFE01E20FF31F8193919322500C
:101C3000310939832883D7CF20915B0330915C032E
:101C4000232B41F4209117023091180230935C034A
:101C500020935B0320911502309116022115310566
:101C600041F42DB73EB74091190250911A02241B3E
:101C7000350BE0915B03F0915C03E217F307A0F4EE
:101C80002E1B3F0B2817390778F0AC014E5F5F4FD2
:101C90002417350748F04E0F5F1F50935C034093A5
:101CA0005B03819391939FCFF0E0E0E09CCFCF93D3
:101CB000DF930097E9F0FC01329713821282A09122
:101CC0005D03B0915E03ED0130E020E01097A1F4D8
:101CD00020813181820F931F20915B0330915C033F
:101CE0002817390709F061C0F0935C03E0935B03A8
:101CF000DF91CF910895EA01CE17DF07E8F54A8119
:101D00005B819E0141155105B1F7E901FB83EA832F
:101D100049915991C40FD51FEC17FD0761F48081DB
:101D200091810296840F951FE901998388838281AE
:101D300093819B838A83F0E0E0E012968D919C91E1
:101D400013970097B9F52D913C911197CD0102960B
:101D5000820F931F20915B0330915C032817390792
:101D600039F6309751F510925E0310925D03B093EF
:101D70005C03A0935B03BCCFD383C28340815181BA
:101D8000840F951FC817D90761F44E5F5F4F888194
:101D90009981480F591F518340838A819B81938386
:101DA00082832115310509F0B0CFF0935E03E093F3
:101DB0005D039ECFFD01DC01C0CF13821282D7CF1D
:101DC000B0E0A0E0E6EEFEE00C94E90B8C01009799
:101DD00051F4CB010E94BB0D8C01C801CDB7DEB719
:101DE000E0E10C94050CFC01E60FF71F9C0122506A
:101DF0003109E217F30708F49DC0D901CD91DC91B8
:101E00001197C617D70798F0C530D10530F3CE012A
:101E100004978617970708F3C61BD70B2297C19321
:101E2000D1936D937C93CF010E94570ED6CF5B0167
:101E3000AC1ABD0A4C018C0E9D1EA0915D03B091A1
:101E40005E03512C412CF12CE12C109731F580913F
:101E50005B0390915C038815990509F05CC04616F8
:101E6000570608F058C0809115029091160200970D
:101E700041F48DB79EB74091190250911A02841B0C
:101E8000950BE817F90708F055C0F0935C03E09351
:101E90005B03F90171836083A0CF8D919C911197B1
:101EA00012966C90129713967C901397A815B9050B
:101EB00059F56C0142E0C40ED11CCA14DB0420F1B8
:101EC000AC014A195B09DA011296159780F062821B
:101ED000738251834083D9016D937C93E114F104A3
:101EE00071F0D7011396FC93EE93129776CF22965A
:101EF0008C0F9D1FF90191838083F301EFCFF09345
:101F00005E03E0935D0369CF4816590608F42C017F
:101F10007D01D3019ACFCB010E94BB0D7C010097BC
:101F200049F0AE01B8010E949D0FC8010E94570EF2
:101F3000870153CF10E000E050CFFB01DC0102C06D
:101F400001900D9241505040D8F70895FB01DC01FB
:0E1F500001900D920020E1F70895F894FFCF64
:101F5E00FF0B020400BA020400BA020800100308C4
:101F6E0000BA020800930208004B0204004B020460
:101F7E00004B020400100304001003080070030855
:101F8E000010030800BA020800930204000B0204BA
:101F9E00000B0204007003040070030800A4030881
:101FAE00007003080010030800BA0204004B02047C
:101FBE00000B0208000B0208004B02040010030481
:101FCE000093020400BA0202000B020400930208FE
:101FDE00004B020800720104009F0104002A02084F
:101FEE0000EE010800260104004A010400EE01087B
:101FFE0000B8010800150104004A010400B80102EE
:10200E000006010400060108002601FCFF0601FC83
:10201E00FF5D01FCFF4A01FEFF06010400060108F8
:10202E00002601FCFF0601FCFF8801FCFF5D01FE9E
:10203E00FF06010400060108000B02FCFFB801FCBC
:10204E00FF5D01FCFF4A01FCFF2601FCFFD20104EB
:10205E0000D2010800B801FCFF5D01FCFF8801FC05
:10206E00FF5D01FEFF00005F038000000000002EF8
:10207E00028E01BB017B02EC01CA01DE016E616EB4
:10208E0000696E66006F76660046554C4C004348FC
:10209E00415247494E47004C4F570043524954490D
:1020AE0043414C0054656D70657261747572653A8A
:1020BE0020000D0A0048756D69646974793A200034
:1020CE00426174746572793A20002056005374612F
:0620DE007475733A200046
:00000001FF
