:100000000C9462000C948A000C948A000C948A0070
:100010000C948A000C948A000C948A000C948A0038
:100020000C948A000C948A000C948A000C948A0028
:100030000C948A000C948A000C948A000C948A0018
:100040000C9465030C948A000C94D5030C94AF03B4
:100050000C948A000C948A000C948A000C948A00F8
:100060000C948A000C948A000000000024002700F1
:100070002A000000000023002600290000000000E4
:10008000250028002B0004040404040404040202D4
:100090000202020203030303030301020408102007
:1000A0004080010204081020010204081020000012
:1000B0000008000201000003040700000000000027
:1000C0000000070411241FBECFEFD8E0DEBFCDBF74
:1000D00011E0A0E0B1E0EAE7F0E102C005900D9286
:1000E000AA33B107D9F721E0AAE3B1E001C01D921C
:1000F000AE3EB207E1F710E0C2E6D0E004C02197BF
:10010000FE010E943508C136D107C9F70E943604A6
:100110000C943B080C940000E6EBF0E02491E2EA3A
:10012000F0E09491EEE8F0E0E491EE23C9F02223B0
:1001300039F0233001F1A8F4213019F1223029F1EE
:10014000F0E0EE0FFF1FE458FF4FA591B4912FB7D9
:10015000F894EC91811126C090959E239C932FBF1B
:1001600008952730A9F02830C9F0243049F72091AC
:1001700080002F7D03C0209180002F772093800086
:10018000DFCF24B52F7724BDDBCF24B52F7DFBCF68
:100190002091B0002F772093B000D2CF2091B000F3
:1001A0002F7DF9CF9E2BDACF3FB7F89480913F0196
:1001B00090914001A0914101B091420126B5A89BC8
:1001C00005C02F3F19F00196A11DB11D3FBFBA2FE9
:1001D000A92F982F8827BC01CD01620F711D811DA9
:1001E000911D42E0660F771F881F991F4A95D1F72E
:1001F00008958F929F92AF92BF92CF92DF92EF922B
:10020000FF924B015C010E94D4006B017C010E94B3
:10021000D4006C197D098E099F09683E73408105E1
:100220009105A8F321E0821A9108A108B10888EE8F
:10023000C80E83E0D81EE11CF11C81149104A104B6
:10024000B10429F7FF90EF90DF90CF90BF90AF906F
:100250009F908F900895AF92BF92CF92DF92EF92CE
:10026000FF920F931F93CF93DF936C017B018B0160
:10027000040F151FEB015E01AE18BF08C017D107B0
:1002800059F06991D601ED91FC910190F081E02D3A
:10029000C6010995892B79F7C501DF91CF911F918F
:1002A0000F91FF90EF90DF90CF90BF90AF900895A7
:1002B000FC01538D448D252F30E0842F90E0821B6C
:1002C000930B541710F0CF96089501970895FC01F1
:1002D000918D828D981761F0A28DAE0FBF2FB11D49
:1002E0005D968C91928D9F5F9F73928F90E00895A1
:1002F0008FEF9FEF0895FC01918D828D981731F05B
:10030000828DE80FF11D858D90E008958FEF9FEFAE
:100310000895FC01918D228D892F90E0805C9F4F84
:10032000821B91098F739927089583E491E00E94BD
:10033000890121E0892B09F420E0822F089580E0D3
:1003400090E0892B29F00E94950181110C94000006
:100350000895FC01A48DA80FB92FB11DA35ABF4F5A
:100360002C91848D90E001968F739927848FA689B4
:10037000B7892C93A089B1898C91837080648C9308
:10038000938D848D981306C00288F389E02D8081B7
:100390008F7D80830895EF92FF920F931F93CF93E9
:1003A000DF93EC0181E0888F9B8D8C8D98131AC0B0
:1003B000E889F989808185FF15C09FB7F894EE8997
:1003C000FF896083E889F9898081837080648083F4
:1003D0009FBF81E090E0DF91CF911F910F91FF903F
:1003E000EF900895F62E0B8D10E00F5F1F4F0F73E7
:1003F0001127E02E8C8D8E110CC00FB607FCFACFA2
:10040000E889F989808185FFF5CFCE010E94A90195
:10041000F1CFEB8DEC0FFD2FF11DE35AFF4FF08272
:100420009FB7F8940B8FEA89FB8980818062CFCFD8
:10043000CF93DF93EC01888D8823B9F0AA89BB891B
:10044000E889F9898C9185FD03C0808186FD0DC006
:100450000FB607FCF7CF8C9185FFF2CF808185FF27
:10046000EDCFCE010E94A901E9CFDF91CF91089590
:10047000FC0101900020E9F73197AF01481B590BAF
:10048000BC0183E491E00C942B018F929F92AF9278
:10049000BF920F931F93CF93DF93CDB7DEB7A19792
:1004A0000FB6F894DEBF0FBECDBF19A2423008F4DC
:1004B0004AE08E010F5D1F4F842E912CB12CA12C90
:1004C000A50194010E941308E62FB901CA01EA3080
:1004D000F4F4E05DD801EE938D01232B242B252B22
:1004E00079F790E080E0109719F0CD010E94380272
:1004F000A1960FB6F894DEBF0FBECDBFDF91CF91AE
:100500001F910F91BF90AF909F908F900895E95CDD
:10051000E1CF4F925F926F927F928F929F92AF92B4
:10052000BF92CF92DF92EF92FF920F931F93CF93E0
:100530006B017C01742EAC019B010E940E08882384
:1005400099F082E191E0CF911F910F91FF90EF9090
:10055000DF90CF90BF90AF909F908F907F906F90E3
:100560005F904F900C94380246015701E894B7F819
:100570002FEF3FEF4FE75FE7C501B4010E940E0880
:1005800081110DC02FEF3FEF4FE75FE7C501B401C9
:100590000E94440618161CF486E191E0D4CF2FEF98
:1005A0003FEF4FE75FE4C701B6010E949C071816B2
:1005B0001CF48AE191E0C7CF2FEF3FEF4FE75FECEC
:1005C000C701B6010E94440687FDF3CF20E030E06A
:1005D000A901C701B6010E94440610E000E087FFB0
:1005E0000AC06DE283E491E00E94CB018C01F7FA2E
:1005F000F094F7F8F094C0E060E070E080E09FE3F2
:100600007C1641F020E030E040E251E40E944906CF
:10061000CF5FF6CFA70196010E94D8052B013C01C0
:100620000E94BB064B015C014AE00E9445027C012E
:10063000E00EF11ECC23C1F1C501B4010E94EA060F
:100640009B01AC01C301B2010E94D7054B015C01C3
:100650006EE283E491E00E94CB01E80EF91EC150E6
:1006600018F120E030E040E251E4C501B4010E94FD
:10067000A1072B013C010E94BB064B01B12CA12C10
:100680004AE0C501B4010E944502E80EF91EC50109
:10069000B4010E94EA069B01AC01C301B2010E94B1
:1006A000D7054B015C01DBCFC701CF911F910F91A3
:1006B000FF90EF90DF90CF90BF90AF909F908F9082
:1006C0007F906F905F904F9008951F920F920FB69A
:1006D0000F9211242F933F938F939F93AF93BF93C8
:1006E00080913B0190913C01A0913D01B0913E0170
:1006F00030913A0123E0230F2D3758F50196A11DC3
:10070000B11D20933A0180933B0190933C01A0934B
:100710003D01B0933E0180913F0190914001A09135
:100720004101B09142010196A11DB11D80933F018D
:1007300090934001A0934101B0934201BF91AF91CA
:100740009F918F913F912F910F900FBE0F901F900F
:10075000189526E8230F0296A11DB11DD2CF1F9236
:100760000F920FB60F9211242F933F934F935F93E5
:100770006F937F938F939F93AF93BF93EF93FF9369
:1007800083E491E00E94A901FF91EF91BF91AF91A5
:100790009F918F917F916F915F914F913F912F9199
:1007A0000F900FBE0F901F9018951F920F920FB6CB
:1007B0000F9211242F938F939F93EF93FF93E091C8
:1007C0005301F09154018081E0915901F0915A0157
:1007D00082FD1BC0908180915C018F5F8F7320919F
:1007E0005D01821741F0E0915C01F0E0ED5BFE4FAE
:1007F000958F80935C01FF91EF919F918F912F9145
:100800000F900FBE0F901F9018958081F4CFE3E4F6
:10081000F1E01382128288EE93E0A0E0B0E08483DE
:100820009583A683B78384E091E09183808385ECF0
:1008300090E09587848784EC90E09787868780ECAA
:1008400090E0918B808B81EC90E0938B828B82EC9B
:1008500090E0958B848B86EC90E0978B868B118E45
:10086000128E138E148E1092ED010895789484B533
:10087000826084BD84B5816084BD85B5826085BD9C
:1008800085B5816085BD80916E00816080936E002A
:10089000109281008091810082608093810080911C
:1008A00081008160809381008091800081608093CD
:1008B00080008091B10084608093B1008091B0008D
:1008C00081608093B00080917A00846080937A0088
:1008D00080917A00826080937A0080917A008160B2
:1008E00080937A0080917A00806880937A001092D9
:1008F000C100E0915301F091540182E08083E091C6
:100900004F01F09150011082E0915101F09152019C
:100910008FEC808310925B01E0915701F0915801B8
:1009200086E08083E0915501F091560180818061DD
:100930008083E0915501F091560180818860808329
:10094000E0915501F0915601808180688083E091AB
:100950005501F091560180818F7D808302EA10E07D
:10096000B0E94B2E55245394612C712CC0E02C2EF1
:10097000C0E03C2E8091ED01882309F0F894F80145
:10098000D490EEE8F0E08491E82FF0E0EE0FFF1F46
:10099000EE58FF4FE590F490F8012491EEE8F0E076
:1009A0008491882399F090E0880F991FFC01E85901
:1009B000FF4FA591B491FC01E458FF4F85919491AC
:1009C0008FB7F8949C91292B2C938FBF80E00E94C5
:1009D0008C0062E170E080E090E00E94F90081E02C
:1009E0000E948C00F8014491EEE8F0E0249122236B
:1009F000C9F030E0220F331FF901E859FF4F85910C
:100A00009491F901E458FF4FA591B4915FB7F89420
:100A1000EC013881242F2095322338838C912823B0
:100A20002C935FBF80E293E0F70120812D2109F430
:100A300066C00197C9F78091ED018111B6C0809120
:100A4000E8018F778093E8016091EA01B62EE8947F
:100A5000B7F8B092EA01682F70E090E080E00E9461
:100A6000EA066B017C01C092E001D092E101E092C4
:100A7000E201F092E3016B2D70E090E080E00E94D3
:100A8000EA064B015C018092E4019092E501A0929C
:100A9000E601B092E7018EE191E00E9438028CE21B
:100AA00091E00E94380242E0C501B4010E9489022F
:100AB0008CE291E00E9438028FE291E00E943802BD
:100AC0008CE291E00E94380242E0C701B6010E9428
:100AD00089028CE291E00E94380264EC79E080E0C7
:100AE00090E00E94F9002114310409F443CF0E94E0
:100AF0009501882309F43ECF0E9400003BCF80E996
:100B000091E0E70128812D2119F40197D1F793CFC6
:100B100080E991E0F70120812D2191F10197D1F732
:100B20008ACF6A2FCC2009F486CFE701A881AD21B6
:100B300021F5662311F1D8E2CD122FC08417950755
:100B400008F4AC01C301B201641B750B8109910962
:100B500022E095958795779567952A95D1F79B0122
:100B6000E69541F4EB2DF0E0E052FE4FB087B394F0
:100B7000B0E0E0E8CA9480E991E0019791F65BCF9C
:100B8000B12CB0E0E0E830E020E080E991E040E91D
:100B900051E060E078E2C72EC8CFBA01621B730B48
:100BA00068177907E8F2BE2BDBCF789448CF50580E
:100BB000BB27AA270E94EF050C9462070E945407E6
:100BC00038F00E945B0720F039F49F3F19F426F4B7
:100BD0000C9451070EF4E095E7FB0C944B07E92FBA
:100BE0000E94730758F3BA176207730784079507C3
:100BF00020F079F4A6F50C9495070EF4E0950B2EF1
:100C0000BA2FA02D0B01B90190010C01CA01A0015E
:100C10001124FF27591B99F0593F50F4503E68F1B9
:100C20001A16F040A22F232F342F4427585FF3CFFA
:100C3000469537952795A795F0405395C9F77EF4CB
:100C40001F16BA0B620B730B840BBAF09150A1F014
:100C5000FF0FBB1F661F771F881FC2F70EC0BA0F9A
:100C6000621F731F841F48F4879577956795B79522
:100C7000F7959E3F08F0B0CF9395880F08F099271D
:100C8000EE0F9795879508950E94270708F481E055
:100C900008950E945D060C9462070E945B0758F05D
:100CA0000E94540740F029F45F3F29F00C944B0751
:100CB00051110C9496070C9451070E94730768F326
:100CC0009923B1F3552391F3951B550BBB27AA2705
:100CD00062177307840738F09F5F5F4F220F331F3F
:100CE000441FAA1FA9F335D00E2E3AF0E0E832D007
:100CF00091505040E695001CCAF72BD0FE2F29D00A
:100D0000660F771F881FBB1F261737074807AB07DB
:100D1000B0E809F0BB0B802DBF01FF2793585F4F50
:100D20003AF09E3F510578F00C944B070C949607CF
:100D30005F3FE4F3983ED4F3869577956795B79532
:100D4000F7959F5FC9F7880F911D9695879597F93D
:100D50000895E1E0660F771F881FBB1F62177307B6
:100D60008407BA0720F0621B730B840BBA0BEE1FCB
:100D700088F7E09508950E947B0788F09F5798F0C8
:100D8000B92F9927B751B0F0E1F0660F771F881F90
:100D9000991F1AF0BA95C9F714C0B13091F00E94AA
:100DA0009507B1E008950C949507672F782F882751
:100DB000B85F39F0B93FCCF3869577956795B395D1
:100DC000D9F73EF490958095709561957F4F8F4F40
:100DD0009F4F0895E89409C097FB3EF49095809545
:100DE000709561957F4F8F4F9F4F9923A9F0F92FF1
:100DF00096E9BB279395F695879577956795B7956F
:100E0000F111F8CFFAF4BB0F11F460FF1BC06F5F54
:100E10007F4F8F4F9F4F16C0882311F096E911C066
:100E2000772321F09EE8872F762F05C0662371F087
:100E300096E8862F70E060E02AF09A95660F771F9B
:100E4000881FDAF7880F9695879597F90895990F77
:100E50000008550FAA0BE0E8FEEF16161706E80784
:100E6000F907C0F012161306E407F50798F0621BA5
:100E7000730B840B950B39F40A2661F0232B242B7A
:100E8000252B21F408950A2609F4A140A6958FEF99
:100E9000811D811D089597F99F6780E870E060E0EB
:100EA00008959FEF80EC089500240A941616170603
:100EB00018060906089500240A941216130614064B
:100EC00005060895092E0394000C11F4882352F0AE
:100ED000BB0F40F4BF2B11F460FF04C06F5F7F4F66
:100EE0008F4F9F4F089557FD9058440F551F59F04D
:100EF0005F3F71F04795880F97FB991F61F09F3F07
:100F000079F087950895121613061406551FF2CF2F
:100F10004695F1DF08C0161617061806991FF1CF7F
:100F200086957105610508940895E894BB276627A6
:100F30007727CB0197F908950E94270708F48FEFD0
:100F400008950E94B4070C9462070E94540738F079
:100F50000E945B0720F0952311F00C944B070C9432
:100F6000510711240C9496070E94730770F3959F04
:100F7000C1F3950F50E0551F629FF001729FBB2790
:100F8000F00DB11D639FAA27F00DB11DAA1F649F2C
:100F90006627B00DA11D661F829F2227B00DA11DDF
:100FA000621F739FB00DA11D621F839FA00D611D65
:100FB000221F749F3327A00D611D231F849F600D86
:100FC000211D822F762F6A2F11249F5750409AF0AF
:100FD000F1F088234AF0EE0FFF1FBB1F661F771F3B
:100FE000881F91505040A9F79E3F510580F00C9406
:100FF0004B070C9496075F3FE4F3983ED4F3869535
:1010000077956795B795F795E7959F5FC1F7FE2BA5
:10101000880F911D9695879597F908950E94270747
:10102000880B990B0895A1E21A2EAA1BBB1BFD0188
:101030000DC0AA1FBB1FEE1FFF1FA217B307E407B7
:10104000F50720F0A21BB30BE40BF50B661F771F0F
:10105000881F991F1A9469F76095709580959095EF
:101060009B01AC01BD01CF010895EE0FFF1F05905C
:0A107000F491E02D0994F894FFCFED
:10107A0000000000CB012B01580118028901670109
:10108A007B016E616E00696E66006F76660054655C
:10109A006D70657261747572653A20000D0A0048B8
:0A10AA00756D69646974793A2000DD
:00000001FF
